{"abi":[{"type":"function","name":"buyItem","inputs":[{"name":"nftAddress","type":"address","internalType":"address"},{"name":"tokenId","type":"uint256","internalType":"uint256"}],"outputs":[],"stateMutability":"payable"},{"type":"function","name":"cancelSale","inputs":[{"name":"nftAddress","type":"address","internalType":"address"},{"name":"tokenId","type":"uint256","internalType":"uint256"}],"outputs":[],"stateMutability":"nonpayable"},{"type":"function","name":"confirmDelivery","inputs":[{"name":"nftAddress","type":"address","internalType":"address"},{"name":"tokenId","type":"uint256","internalType":"uint256"}],"outputs":[],"stateMutability":"nonpayable"},{"type":"function","name":"getListing","inputs":[{"name":"nftAddress","type":"address","internalType":"address"},{"name":"tokenId","type":"uint256","internalType":"uint256"}],"outputs":[{"name":"","type":"tuple","internalType":"struct VintageGarden.Listing","components":[{"name":"price","type":"uint256","internalType":"uint256"},{"name":"numOfAttestations","type":"uint256","internalType":"uint256"},{"name":"numOfOwners","type":"uint256","internalType":"uint256"},{"name":"openForSale","type":"bool","internalType":"bool"},{"name":"onHold","type":"bool","internalType":"bool"},{"name":"seller","type":"address","internalType":"address"},{"name":"buyer","type":"address","internalType":"address"}]}],"stateMutability":"view"},{"type":"function","name":"getPendingProceeds","inputs":[{"name":"seller","type":"address","internalType":"address"}],"outputs":[{"name":"","type":"uint256","internalType":"uint256"}],"stateMutability":"view"},{"type":"function","name":"sellItem","inputs":[{"name":"nftAddress","type":"address","internalType":"address"},{"name":"tokenId","type":"uint256","internalType":"uint256"},{"name":"price","type":"uint256","internalType":"uint256"}],"outputs":[],"stateMutability":"nonpayable"},{"type":"function","name":"withdrawPendingProceeds","inputs":[],"outputs":[],"stateMutability":"nonpayable"},{"type":"event","name":"ItemBought","inputs":[{"name":"buyer","type":"address","indexed":true,"internalType":"address"},{"name":"nftAddress","type":"address","indexed":true,"internalType":"address"},{"name":"tokenId","type":"uint256","indexed":true,"internalType":"uint256"},{"name":"price","type":"uint256","indexed":false,"internalType":"uint256"}],"anonymous":false},{"type":"event","name":"ItemOnHold","inputs":[{"name":"nftAddress","type":"address","indexed":true,"internalType":"address"},{"name":"tokenId","type":"uint256","indexed":true,"internalType":"uint256"},{"name":"seller","type":"address","indexed":false,"internalType":"address"},{"name":"buyer","type":"address","indexed":false,"internalType":"address"}],"anonymous":false},{"type":"event","name":"ItemPutOnSale","inputs":[{"name":"seller","type":"address","indexed":true,"internalType":"address"},{"name":"nftAddress","type":"address","indexed":true,"internalType":"address"},{"name":"tokenId","type":"uint256","indexed":true,"internalType":"uint256"},{"name":"price","type":"uint256","indexed":false,"internalType":"uint256"}],"anonymous":false},{"type":"event","name":"SaleCanceled","inputs":[{"name":"seller","type":"address","indexed":true,"internalType":"address"},{"name":"nftAddress","type":"address","indexed":true,"internalType":"address"},{"name":"tokenId","type":"uint256","indexed":true,"internalType":"uint256"}],"anonymous":false},{"type":"error","name":"ReentrancyGuardReentrantCall","inputs":[]},{"type":"error","name":"VintageGarden__AlreadyOpenForSale","inputs":[{"name":"nftAddress","type":"address","internalType":"address"},{"name":"tokenId","type":"uint256","internalType":"uint256"}]},{"type":"error","name":"VintageGarden__ItemNotOnHold","inputs":[{"name":"nftAddress","type":"address","internalType":"address"},{"name":"tokenId","type":"uint256","internalType":"uint256"}]},{"type":"error","name":"VintageGarden__NoPendingProceeds","inputs":[{"name":"seller","type":"address","internalType":"address"}]},{"type":"error","name":"VintageGarden__NotApprovedForMarketplace","inputs":[]},{"type":"error","name":"VintageGarden__NotBuyer","inputs":[{"name":"nftAddress","type":"address","internalType":"address"},{"name":"tokenId","type":"uint256","internalType":"uint256"}]},{"type":"error","name":"VintageGarden__NotOpenForSale","inputs":[{"name":"nftAddress","type":"address","internalType":"address"},{"name":"tokenId","type":"uint256","internalType":"uint256"}]},{"type":"error","name":"VintageGarden__NotOwner","inputs":[]},{"type":"error","name":"VintageGarden__PriceMustBeAboveZero","inputs":[]},{"type":"error","name":"VintageGarden__PriceNotMet","inputs":[{"name":"nftAddress","type":"address","internalType":"address"},{"name":"tokenId","type":"uint256","internalType":"uint256"},{"name":"price","type":"uint256","internalType":"uint256"}]},{"type":"error","name":"VintageGarden__TransferFailed","inputs":[{"name":"seller","type":"address","internalType":"address"}]}],"bytecode":{"object":"0x6080604052348015600f57600080fd5b506001600055611034806100246000396000f3fe6080604052600436106100705760003560e01c8063689153271161004e57806368915327146100f557806388700d1c146101155780639f37092a14610199578063b6b9ad03146101ac57600080fd5b806316f3a95b1461007557806322ab8aa01461009757806359d3c58e146100e0575b600080fd5b34801561008157600080fd5b50610095610090366004610f3b565b6101cc565b005b3480156100a357600080fd5b506100cd6100b2366004610f67565b6001600160a01b031660009081526002602052604090205490565b6040519081526020015b60405180910390f35b3480156100ec57600080fd5b506100956103de565b34801561010157600080fd5b50610095610110366004610f8b565b61047d565b34801561012157600080fd5b50610135610130366004610f3b565b610991565b6040516100d7919081518152602080830151908201526040808301519082015260608083015115159082015260808083015115159082015260a0808301516001600160a01b039081169183019190915260c092830151169181019190915260e00190565b6100956101a7366004610f3b565b610a53565b3480156101b857600080fd5b506100956101c7366004610f3b565b610c62565b6040516331a9108f60e11b81526004810182905282908290339083906000906001600160a01b03831690636352211e90602401602060405180830381865afa15801561021c573d6000803e3d6000fd5b505050506040513d601f19601f820116820180604052508101906102409190610fc0565b9050806001600160a01b0316836001600160a01b03161461027457604051631de0e1a960e11b815260040160405180910390fd5b6001600160a01b0380881660009081526001602081815260408084208b8552825292839020835160e081018552815481529281015491830191909152600281015492820192909252600382015460ff80821615156060840181905261010083049091161515608084015262010000909104841660a083015260049092015490921660c083015288918891610332576040516312e4c0fb60e21b81526001600160a01b0384166004820152602481018390526044015b60405180910390fd5b6001600160a01b03808b1660008181526001602081815260408084208f85528252808420815160e0810183528154815293810154928401929092526002820154838201526003820154610100900460ff161515608084015260049091015490941660c08201526060810182905260a0810182905292518c929133917fea5b5000e3add721de8766ab9898ce3267a3b7ec95e0112c138b44656ac9ed569190a45050505050505050505050565b336000908152600260205260409020548061040e57604051630ab5e20b60e41b8152336004820152602401610329565b604051600090339083908381818185875af1925050503d8060008114610450576040519150601f19603f3d011682016040523d82523d6000602084013e610455565b606091505b50509050806104795760405163bb76d30b60e01b8152336004820152602401610329565b5050565b6001600160a01b038084166000908152600160208181526040808420878552825292839020835160e081018552815481529281015491830191909152600281015492820192909252600382015460ff808216158015606085015261010083049091161515608084015262010000909104841660a083015260049092015490921660c083015284918491339190610538576040516312e07c9d60e11b81526001600160a01b038516600482015260248101849052604401610329565b6040516331a9108f60e11b81526004810187905287908790339083906000906001600160a01b03831690636352211e90602401602060405180830381865afa158015610588573d6000803e3d6000fd5b505050506040513d601f19601f820116820180604052508101906105ac9190610fc0565b9050806001600160a01b0316836001600160a01b0316146105e057604051631de0e1a960e11b815260040160405180910390fd5b60008a116106015760405163b60d21af60e01b815260040160405180910390fd5b60405163020604bf60e21b8152600481018c90528c9030906001600160a01b0383169063081812fc90602401602060405180830381865afa15801561064a573d6000803e3d6000fd5b505050506040513d601f19601f8201168201806040525081019061066e9190610fc0565b6001600160a01b03161461069557604051631c43b36560e11b815260040160405180910390fd5b6001600160a01b038d1660009081526001602090815260408083208f84529091528120600201549003610802576040518060e001604052808c81526020016000815260200160018152602001600115158152602001600015158152602001336001600160a01b0316815260200160006001600160a01b0316815250600160008f6001600160a01b03166001600160a01b0316815260200190815260200160002060008e815260200190815260200160002060008201518160000155602082015181600101556040820151816002015560608201518160030160006101000a81548160ff02191690831515021790555060808201518160030160016101000a81548160ff02191690831515021790555060a08201518160030160026101000a8154816001600160a01b0302191690836001600160a01b0316021790555060c08201518160040160006101000a8154816001600160a01b0302191690836001600160a01b031602179055509050505b6000600160008f6001600160a01b03166001600160a01b0316815260200190815260200160002060008e81526020019081526020016000206040518060e00160405290816000820154815260200160018201548152602001600282015481526020016003820160009054906101000a900460ff161515151581526020016003820160019054906101000a900460ff161515151581526020016003820160029054906101000a90046001600160a01b03166001600160a01b03166001600160a01b031681526020016004820160009054906101000a90046001600160a01b03166001600160a01b03166001600160a01b03168152505090508b816000018181525050600181606001901515908115158152505060008160c001906001600160a01b031690816001600160a01b0316815250508c8e6001600160a01b0316336001600160a01b03167f82ff1688ac7e0c0e0da3da19d36679068a2807342df7b56990ff8b6f94df12628f60405161097991815260200190565b60405180910390a45050505050505050505050505050565b6040805160e081018252600080825260208201819052918101829052606081018290526080810182905260a0810182905260c0810191909152506001600160a01b038083166000908152600160208181526040808420868552825292839020835160e081018552815481529281015491830191909152600281015492820192909252600382015460ff8082161515606084015261010082041615156080830152620100009004831660a082015260049091015490911660c08201525b92915050565b610a5b610ef9565b6001600160a01b038083166000908152600160208181526040808420868552825292839020835160e081018552815481529281015491830191909152600281015492820192909252600382015460ff80821615156060840181905261010083049091161515608084015262010000909104841660a083015260049092015490921660c083015283918391610b14576040516312e4c0fb60e21b81526001600160a01b038416600482015260248101839052604401610329565b6001600160a01b038086166000908152600160208181526040808420898552825292839020835160e08101855281548082529382015492810192909252600281015493820193909352600383015460ff8082161515606084015261010082041615156080830152620100009004841660a082015260049092015490921660c082015290341015610bd357805160405163a900c18560e01b81526001600160a01b0388166004820152602481018790526044810191909152606401610329565b3360c08201818152600160808401526000918252600260205260409182902034905560a08301519051915187926001600160a01b038a16927f7e3e7a863cd0c4fc40e817ba4e47c04fb12d270ce36aecec775d190811c8443092610c4c92906001600160a01b0392831681529116602082015260400190565b60405180910390a3505050506104796001600055565b610c6a610ef9565b6001600160a01b038083166000908152600160208181526040808420868552825292839020835160e081018552815481529281015491830191909152600281015492820192909252600382015460ff8082161515606084015261010082041615156080830181905262010000909104841660a083015260049092015490921660c083015283918391610d2157604051639ffc458b60e01b81526001600160a01b038416600482015260248101839052604401610329565b6001600160a01b038086166000908152600160208181526040808420898552825292839020835160e081018552815481529281015491830191909152600281015492820192909252600382015460ff8082161515606084015261010082041615156080830152620100009004831660a082015260049091015490911660c082018190523314610dd557604051630abfe86960e31b81526001600160a01b038716600482015260248101869052604401610329565b60c0810180516001600160a01b039081166000908152600260205260408082205460a08601805185168452828420919091559351831682528082209190915591519151632142170760e11b81529181166004830152336024830152604482018790528716906342842e0e90606401600060405180830381600087803b158015610e5d57600080fd5b505af1158015610e71573d6000803e3d6000fd5b50505050600181604001818151610e889190610fdd565b9052506000606082018190526080820181905260a0820181905260c0820152805160405190815285906001600160a01b0388169033907f263223b1dd81e51054a4e6f791d45a4a1ddb4aadcd93a2dfd892615c3fdac1879060200160405180910390a4505050506104796001600055565b600260005403610f1c57604051633ee5aeb560e01b815260040160405180910390fd5b6002600055565b6001600160a01b0381168114610f3857600080fd5b50565b60008060408385031215610f4e57600080fd5b8235610f5981610f23565b946020939093013593505050565b600060208284031215610f7957600080fd5b8135610f8481610f23565b9392505050565b600080600060608486031215610fa057600080fd5b8335610fab81610f23565b95602085013595506040909401359392505050565b600060208284031215610fd257600080fd5b8151610f8481610f23565b80820180821115610a4d57634e487b7160e01b600052601160045260246000fdfea2646970667358221220d8751f08b4b017c78622d276fa481735f2fa4b24281359d92aca34c2d50b427b64736f6c634300081c0033","linkReferences":{}},"methodIdentifiers":{"buyItem(address,uint256)":"9f37092a","cancelSale(address,uint256)":"16f3a95b","confirmDelivery(address,uint256)":"b6b9ad03","getListing(address,uint256)":"88700d1c","getPendingProceeds(address)":"22ab8aa0","sellItem(address,uint256,uint256)":"68915327","withdrawPendingProceeds()":"59d3c58e"},"id":3}