{"abi":[{"type":"constructor","inputs":[],"stateMutability":"nonpayable"},{"type":"function","name":"approve","inputs":[{"name":"to","type":"address","internalType":"address"},{"name":"tokenId","type":"uint256","internalType":"uint256"}],"outputs":[],"stateMutability":"nonpayable"},{"type":"function","name":"balanceOf","inputs":[{"name":"owner","type":"address","internalType":"address"}],"outputs":[{"name":"","type":"uint256","internalType":"uint256"}],"stateMutability":"view"},{"type":"function","name":"getApproved","inputs":[{"name":"tokenId","type":"uint256","internalType":"uint256"}],"outputs":[{"name":"","type":"address","internalType":"address"}],"stateMutability":"view"},{"type":"function","name":"getTokenCounter","inputs":[],"outputs":[{"name":"","type":"uint256","internalType":"uint256"}],"stateMutability":"view"},{"type":"function","name":"isApprovedForAll","inputs":[{"name":"owner","type":"address","internalType":"address"},{"name":"operator","type":"address","internalType":"address"}],"outputs":[{"name":"","type":"bool","internalType":"bool"}],"stateMutability":"view"},{"type":"function","name":"mintNft","inputs":[{"name":"tokenUri","type":"string","internalType":"string"}],"outputs":[],"stateMutability":"nonpayable"},{"type":"function","name":"name","inputs":[],"outputs":[{"name":"","type":"string","internalType":"string"}],"stateMutability":"view"},{"type":"function","name":"ownerOf","inputs":[{"name":"tokenId","type":"uint256","internalType":"uint256"}],"outputs":[{"name":"","type":"address","internalType":"address"}],"stateMutability":"view"},{"type":"function","name":"safeTransferFrom","inputs":[{"name":"from","type":"address","internalType":"address"},{"name":"to","type":"address","internalType":"address"},{"name":"tokenId","type":"uint256","internalType":"uint256"}],"outputs":[],"stateMutability":"nonpayable"},{"type":"function","name":"safeTransferFrom","inputs":[{"name":"from","type":"address","internalType":"address"},{"name":"to","type":"address","internalType":"address"},{"name":"tokenId","type":"uint256","internalType":"uint256"},{"name":"data","type":"bytes","internalType":"bytes"}],"outputs":[],"stateMutability":"nonpayable"},{"type":"function","name":"setApprovalForAll","inputs":[{"name":"operator","type":"address","internalType":"address"},{"name":"approved","type":"bool","internalType":"bool"}],"outputs":[],"stateMutability":"nonpayable"},{"type":"function","name":"supportsInterface","inputs":[{"name":"interfaceId","type":"bytes4","internalType":"bytes4"}],"outputs":[{"name":"","type":"bool","internalType":"bool"}],"stateMutability":"view"},{"type":"function","name":"symbol","inputs":[],"outputs":[{"name":"","type":"string","internalType":"string"}],"stateMutability":"view"},{"type":"function","name":"tokenURI","inputs":[{"name":"tokenId","type":"uint256","internalType":"uint256"}],"outputs":[{"name":"","type":"string","internalType":"string"}],"stateMutability":"view"},{"type":"function","name":"transferFrom","inputs":[{"name":"from","type":"address","internalType":"address"},{"name":"to","type":"address","internalType":"address"},{"name":"tokenId","type":"uint256","internalType":"uint256"}],"outputs":[],"stateMutability":"nonpayable"},{"type":"event","name":"Approval","inputs":[{"name":"owner","type":"address","indexed":true,"internalType":"address"},{"name":"approved","type":"address","indexed":true,"internalType":"address"},{"name":"tokenId","type":"uint256","indexed":true,"internalType":"uint256"}],"anonymous":false},{"type":"event","name":"ApprovalForAll","inputs":[{"name":"owner","type":"address","indexed":true,"internalType":"address"},{"name":"operator","type":"address","indexed":true,"internalType":"address"},{"name":"approved","type":"bool","indexed":false,"internalType":"bool"}],"anonymous":false},{"type":"event","name":"Transfer","inputs":[{"name":"from","type":"address","indexed":true,"internalType":"address"},{"name":"to","type":"address","indexed":true,"internalType":"address"},{"name":"tokenId","type":"uint256","indexed":true,"internalType":"uint256"}],"anonymous":false},{"type":"error","name":"BasicNft__TokenUriNotFound","inputs":[]},{"type":"error","name":"ERC721IncorrectOwner","inputs":[{"name":"sender","type":"address","internalType":"address"},{"name":"tokenId","type":"uint256","internalType":"uint256"},{"name":"owner","type":"address","internalType":"address"}]},{"type":"error","name":"ERC721InsufficientApproval","inputs":[{"name":"operator","type":"address","internalType":"address"},{"name":"tokenId","type":"uint256","internalType":"uint256"}]},{"type":"error","name":"ERC721InvalidApprover","inputs":[{"name":"approver","type":"address","internalType":"address"}]},{"type":"error","name":"ERC721InvalidOperator","inputs":[{"name":"operator","type":"address","internalType":"address"}]},{"type":"error","name":"ERC721InvalidOwner","inputs":[{"name":"owner","type":"address","internalType":"address"}]},{"type":"error","name":"ERC721InvalidReceiver","inputs":[{"name":"receiver","type":"address","internalType":"address"}]},{"type":"error","name":"ERC721InvalidSender","inputs":[{"name":"sender","type":"address","internalType":"address"}]},{"type":"error","name":"ERC721NonexistentToken","inputs":[{"name":"tokenId","type":"uint256","internalType":"uint256"}]}],"bytecode":{"object":"0x60806040523480156200001157600080fd5b506040518060400160405280600781526020016656696e7461676560c81b81525060405180604001604052806002815260200161159560f21b81525081600090816200005e919062000120565b5060016200006d828262000120565b5050600060075550620001ec565b634e487b7160e01b600052604160045260246000fd5b600181811c90821680620000a657607f821691505b602082108103620000c757634e487b7160e01b600052602260045260246000fd5b50919050565b601f8211156200011b57600081815260208120601f850160051c81016020861015620000f65750805b601f850160051c820191505b81811015620001175782815560010162000102565b5050505b505050565b81516001600160401b038111156200013c576200013c6200007b565b62000154816200014d845462000091565b84620000cd565b602080601f8311600181146200018c5760008415620001735750858301515b600019600386901b1c1916600185901b17855562000117565b600085815260208120601f198616915b82811015620001bd578886015182559484019460019091019084016200019c565b5085821015620001dc5787850151600019600388901b60f8161c191681555b5050505050600190811b01905550565b61103680620001fc6000396000f3fe608060405234801561001057600080fd5b50600436106100f55760003560e01c80636e02007d11610097578063b88d4fde11610066578063b88d4fde146101f0578063c87b56dd14610203578063da86f4a914610216578063e985e9c51461022957600080fd5b80636e02007d146101b057806370a08231146101c257806395d89b41146101d5578063a22cb465146101dd57600080fd5b8063095ea7b3116100d3578063095ea7b31461016257806323b872dd1461017757806342842e0e1461018a5780636352211e1461019d57600080fd5b806301ffc9a7146100fa57806306fdde0314610122578063081812fc14610137575b600080fd5b61010d610108366004610b52565b61023c565b60405190151581526020015b60405180910390f35b61012a61028e565b6040516101199190610bbc565b61014a610145366004610bcf565b610320565b6040516001600160a01b039091168152602001610119565b610175610170366004610c04565b610349565b005b610175610185366004610c2e565b610358565b610175610198366004610c2e565b6103e8565b61014a6101ab366004610bcf565b610408565b6007545b604051908152602001610119565b6101b46101d0366004610c6a565b610413565b61012a61045b565b6101756101eb366004610c85565b61046a565b6101756101fe366004610d4d565b610475565b61012a610211366004610bcf565b61048d565b610175610224366004610dc9565b61055f565b61010d610237366004610e12565b61059b565b60006001600160e01b031982166380ac58cd60e01b148061026d57506001600160e01b03198216635b5e139f60e01b145b8061028857506301ffc9a760e01b6001600160e01b03198316145b92915050565b60606000805461029d90610e45565b80601f01602080910402602001604051908101604052809291908181526020018280546102c990610e45565b80156103165780601f106102eb57610100808354040283529160200191610316565b820191906000526020600020905b8154815290600101906020018083116102f957829003601f168201915b5050505050905090565b600061032b826105c9565b506000828152600460205260409020546001600160a01b0316610288565b610354828233610602565b5050565b6001600160a01b03821661038757604051633250574960e11b8152600060048201526024015b60405180910390fd5b600061039483833361060f565b9050836001600160a01b0316816001600160a01b0316146103e2576040516364283d7b60e01b81526001600160a01b038086166004830152602482018490528216604482015260640161037e565b50505050565b61040383838360405180602001604052806000815250610475565b505050565b6000610288826105c9565b60006001600160a01b03821661043f576040516322718ad960e21b81526000600482015260240161037e565b506001600160a01b031660009081526003602052604090205490565b60606001805461029d90610e45565b610354338383610708565b610480848484610358565b6103e233858585856107a7565b6060600061049a83610408565b6001600160a01b0316036104c157604051637598996f60e01b815260040160405180910390fd5b600082815260066020526040902080546104da90610e45565b80601f016020809104026020016040519081016040528092919081815260200182805461050690610e45565b80156105535780601f1061052857610100808354040283529160200191610553565b820191906000526020600020905b81548152906001019060200180831161053657829003601f168201915b50505050509050919050565b600754600090815260066020526040902061057a8282610ec5565b50610587336007546108d2565b600754610595906001610f85565b60075550565b6001600160a01b03918216600090815260056020908152604080832093909416825291909152205460ff1690565b6000818152600260205260408120546001600160a01b03168061028857604051637e27328960e01b81526004810184905260240161037e565b61040383838360016108ec565b6000828152600260205260408120546001600160a01b039081169083161561063c5761063c8184866109f2565b6001600160a01b0381161561067a576106596000856000806108ec565b6001600160a01b038116600090815260036020526040902080546000190190555b6001600160a01b038516156106a9576001600160a01b0385166000908152600360205260409020805460010190555b60008481526002602052604080822080546001600160a01b0319166001600160a01b0389811691821790925591518793918516917fddf252ad1be2c89b69c2b068fc378daa952ba7f163c4a11628f55a4df523b3ef91a4949350505050565b6001600160a01b03821661073a57604051630b61174360e31b81526001600160a01b038316600482015260240161037e565b6001600160a01b03838116600081815260056020908152604080832094871680845294825291829020805460ff191686151590811790915591519182527f17307eab39ab6107e8899845ad3d59bd9653f200f220920489ca2b5937696c31910160405180910390a3505050565b6001600160a01b0383163b156108cb57604051630a85bd0160e11b81526001600160a01b0384169063150b7a02906107e9908890889087908790600401610fa6565b6020604051808303816000875af1925050508015610824575060408051601f3d908101601f1916820190925261082191810190610fe3565b60015b61088d573d808015610852576040519150601f19603f3d011682016040523d82523d6000602084013e610857565b606091505b50805160000361088557604051633250574960e11b81526001600160a01b038516600482015260240161037e565b805181602001fd5b6001600160e01b03198116630a85bd0160e11b146108c957604051633250574960e11b81526001600160a01b038516600482015260240161037e565b505b5050505050565b610354828260405180602001604052806000815250610a56565b808061090057506001600160a01b03821615155b156109c2576000610910846105c9565b90506001600160a01b0383161580159061093c5750826001600160a01b0316816001600160a01b031614155b801561094f575061094d818461059b565b155b156109785760405163a9fbf51f60e01b81526001600160a01b038416600482015260240161037e565b81156109c05783856001600160a01b0316826001600160a01b03167f8c5be1e5ebec7d5bd14f71427d1e84f3dd0314c0f7b2291e5b200ac8c7c3b92560405160405180910390a45b505b5050600090815260046020526040902080546001600160a01b0319166001600160a01b0392909216919091179055565b6109fd838383610a6e565b610403576001600160a01b038316610a2b57604051637e27328960e01b81526004810182905260240161037e565b60405163177e802f60e01b81526001600160a01b03831660048201526024810182905260440161037e565b610a608383610ad4565b6104033360008585856107a7565b60006001600160a01b03831615801590610acc5750826001600160a01b0316846001600160a01b03161480610aa85750610aa8848461059b565b80610acc57506000828152600460205260409020546001600160a01b038481169116145b949350505050565b6001600160a01b038216610afe57604051633250574960e11b81526000600482015260240161037e565b6000610b0c8383600061060f565b90506001600160a01b03811615610403576040516339e3563760e11b81526000600482015260240161037e565b6001600160e01b031981168114610b4f57600080fd5b50565b600060208284031215610b6457600080fd5b8135610b6f81610b39565b9392505050565b6000815180845260005b81811015610b9c57602081850181015186830182015201610b80565b506000602082860101526020601f19601f83011685010191505092915050565b602081526000610b6f6020830184610b76565b600060208284031215610be157600080fd5b5035919050565b80356001600160a01b0381168114610bff57600080fd5b919050565b60008060408385031215610c1757600080fd5b610c2083610be8565b946020939093013593505050565b600080600060608486031215610c4357600080fd5b610c4c84610be8565b9250610c5a60208501610be8565b9150604084013590509250925092565b600060208284031215610c7c57600080fd5b610b6f82610be8565b60008060408385031215610c9857600080fd5b610ca183610be8565b915060208301358015158114610cb657600080fd5b809150509250929050565b634e487b7160e01b600052604160045260246000fd5b600067ffffffffffffffff80841115610cf257610cf2610cc1565b604051601f8501601f19908116603f01168101908282118183101715610d1a57610d1a610cc1565b81604052809350858152868686011115610d3357600080fd5b858560208301376000602087830101525050509392505050565b60008060008060808587031215610d6357600080fd5b610d6c85610be8565b9350610d7a60208601610be8565b925060408501359150606085013567ffffffffffffffff811115610d9d57600080fd5b8501601f81018713610dae57600080fd5b610dbd87823560208401610cd7565b91505092959194509250565b600060208284031215610ddb57600080fd5b813567ffffffffffffffff811115610df257600080fd5b8201601f81018413610e0357600080fd5b610acc84823560208401610cd7565b60008060408385031215610e2557600080fd5b610e2e83610be8565b9150610e3c60208401610be8565b90509250929050565b600181811c90821680610e5957607f821691505b602082108103610e7957634e487b7160e01b600052602260045260246000fd5b50919050565b601f82111561040357600081815260208120601f850160051c81016020861015610ea65750805b601f850160051c820191505b818110156108c957828155600101610eb2565b815167ffffffffffffffff811115610edf57610edf610cc1565b610ef381610eed8454610e45565b84610e7f565b602080601f831160018114610f285760008415610f105750858301515b600019600386901b1c1916600185901b1785556108c9565b600085815260208120601f198616915b82811015610f5757888601518255948401946001909101908401610f38565b5085821015610f755787850151600019600388901b60f8161c191681555b5050505050600190811b01905550565b8082018082111561028857634e487b7160e01b600052601160045260246000fd5b6001600160a01b0385811682528416602082015260408101839052608060608201819052600090610fd990830184610b76565b9695505050505050565b600060208284031215610ff557600080fd5b8151610b6f81610b3956fea26469706673582212206f0407f73850dac4f134d08d2a40ab25e7082ee2fa4ea795fb329e6eabada9f264736f6c63430008140033","linkReferences":{}},"methodIdentifiers":{"approve(address,uint256)":"095ea7b3","balanceOf(address)":"70a08231","getApproved(uint256)":"081812fc","getTokenCounter()":"6e02007d","isApprovedForAll(address,address)":"e985e9c5","mintNft(string)":"da86f4a9","name()":"06fdde03","ownerOf(uint256)":"6352211e","safeTransferFrom(address,address,uint256)":"42842e0e","safeTransferFrom(address,address,uint256,bytes)":"b88d4fde","setApprovalForAll(address,bool)":"a22cb465","supportsInterface(bytes4)":"01ffc9a7","symbol()":"95d89b41","tokenURI(uint256)":"c87b56dd","transferFrom(address,address,uint256)":"23b872dd"},"id":34}