{"abi":[{"type":"constructor","inputs":[],"stateMutability":"nonpayable"},{"type":"function","name":"buyItem","inputs":[{"name":"nftAddress","type":"address","internalType":"address"},{"name":"tokenId","type":"uint256","internalType":"uint256"}],"outputs":[],"stateMutability":"payable"},{"type":"function","name":"cancelSale","inputs":[{"name":"nftAddress","type":"address","internalType":"address"},{"name":"tokenId","type":"uint256","internalType":"uint256"}],"outputs":[],"stateMutability":"nonpayable"},{"type":"function","name":"confirmAuthenticity","inputs":[{"name":"nftAddress","type":"address","internalType":"address"},{"name":"tokenId","type":"uint256","internalType":"uint256"}],"outputs":[{"name":"","type":"uint64","internalType":"uint64"}],"stateMutability":"nonpayable"},{"type":"function","name":"confirmDelivery","inputs":[{"name":"nftAddress","type":"address","internalType":"address"},{"name":"tokenId","type":"uint256","internalType":"uint256"}],"outputs":[],"stateMutability":"nonpayable"},{"type":"function","name":"getListing","inputs":[{"name":"nftAddress","type":"address","internalType":"address"},{"name":"tokenId","type":"uint256","internalType":"uint256"}],"outputs":[{"name":"","type":"tuple","internalType":"struct VintageGarden.Listing","components":[{"name":"price","type":"uint256","internalType":"uint256"},{"name":"numOfAttestations","type":"uint256","internalType":"uint256"},{"name":"numOfOwners","type":"uint256","internalType":"uint256"},{"name":"openForSale","type":"bool","internalType":"bool"},{"name":"onHold","type":"bool","internalType":"bool"},{"name":"seller","type":"address","internalType":"address"},{"name":"buyer","type":"address","internalType":"address"}]}],"stateMutability":"view"},{"type":"function","name":"getPendingProceeds","inputs":[{"name":"seller","type":"address","internalType":"address"}],"outputs":[{"name":"","type":"uint256","internalType":"uint256"}],"stateMutability":"view"},{"type":"function","name":"i_schemaId","inputs":[],"outputs":[{"name":"","type":"uint64","internalType":"uint64"}],"stateMutability":"view"},{"type":"function","name":"i_spInstance","inputs":[],"outputs":[{"name":"","type":"address","internalType":"contract ISP"}],"stateMutability":"view"},{"type":"function","name":"sellItem","inputs":[{"name":"nftAddress","type":"address","internalType":"address"},{"name":"tokenId","type":"uint256","internalType":"uint256"},{"name":"price","type":"uint256","internalType":"uint256"}],"outputs":[],"stateMutability":"nonpayable"},{"type":"function","name":"tokenToNumOfAttestations","inputs":[{"name":"","type":"address","internalType":"address"},{"name":"","type":"uint256","internalType":"uint256"}],"outputs":[{"name":"","type":"uint256","internalType":"uint256"}],"stateMutability":"view"},{"type":"function","name":"withdrawPendingProceeds","inputs":[],"outputs":[],"stateMutability":"nonpayable"},{"type":"event","name":"AuthenticityAttested","inputs":[{"name":"attester","type":"address","indexed":true,"internalType":"address"},{"name":"nftAddress","type":"address","indexed":false,"internalType":"address"},{"name":"tokenId","type":"uint256","indexed":false,"internalType":"uint256"},{"name":"attestationId","type":"uint64","indexed":false,"internalType":"uint64"}],"anonymous":false},{"type":"event","name":"ItemBought","inputs":[{"name":"buyer","type":"address","indexed":true,"internalType":"address"},{"name":"nftAddress","type":"address","indexed":true,"internalType":"address"},{"name":"tokenId","type":"uint256","indexed":true,"internalType":"uint256"},{"name":"price","type":"uint256","indexed":false,"internalType":"uint256"}],"anonymous":false},{"type":"event","name":"ItemOnHold","inputs":[{"name":"nftAddress","type":"address","indexed":true,"internalType":"address"},{"name":"tokenId","type":"uint256","indexed":true,"internalType":"uint256"},{"name":"seller","type":"address","indexed":false,"internalType":"address"},{"name":"buyer","type":"address","indexed":false,"internalType":"address"}],"anonymous":false},{"type":"event","name":"ItemPutOnSale","inputs":[{"name":"seller","type":"address","indexed":true,"internalType":"address"},{"name":"nftAddress","type":"address","indexed":true,"internalType":"address"},{"name":"tokenId","type":"uint256","indexed":true,"internalType":"uint256"},{"name":"price","type":"uint256","indexed":false,"internalType":"uint256"}],"anonymous":false},{"type":"event","name":"SaleCanceled","inputs":[{"name":"seller","type":"address","indexed":true,"internalType":"address"},{"name":"nftAddress","type":"address","indexed":true,"internalType":"address"},{"name":"tokenId","type":"uint256","indexed":true,"internalType":"uint256"}],"anonymous":false},{"type":"error","name":"ReentrancyGuardReentrantCall","inputs":[]},{"type":"error","name":"VintageGarden__AlreadyOpenForSale","inputs":[{"name":"nftAddress","type":"address","internalType":"address"},{"name":"tokenId","type":"uint256","internalType":"uint256"}]},{"type":"error","name":"VintageGarden__ItemNotOnHold","inputs":[{"name":"nftAddress","type":"address","internalType":"address"},{"name":"tokenId","type":"uint256","internalType":"uint256"}]},{"type":"error","name":"VintageGarden__NoPendingProceeds","inputs":[{"name":"seller","type":"address","internalType":"address"}]},{"type":"error","name":"VintageGarden__NotApprovedForMarketplace","inputs":[]},{"type":"error","name":"VintageGarden__NotBuyer","inputs":[{"name":"nftAddress","type":"address","internalType":"address"},{"name":"tokenId","type":"uint256","internalType":"uint256"}]},{"type":"error","name":"VintageGarden__NotOpenForSale","inputs":[{"name":"nftAddress","type":"address","internalType":"address"},{"name":"tokenId","type":"uint256","internalType":"uint256"}]},{"type":"error","name":"VintageGarden__NotOwner","inputs":[]},{"type":"error","name":"VintageGarden__PriceMustBeAboveZero","inputs":[]},{"type":"error","name":"VintageGarden__PriceNotMet","inputs":[{"name":"nftAddress","type":"address","internalType":"address"},{"name":"tokenId","type":"uint256","internalType":"uint256"},{"name":"price","type":"uint256","internalType":"uint256"}]},{"type":"error","name":"VintageGarden__TransferFailed","inputs":[{"name":"seller","type":"address","internalType":"address"}]}],"bytecode":{"object":"0x6080604052348015600f57600080fd5b506001600081905580547504a24e4af2a21ebf62850fd99eb6253e1efbb56098cd6001600160e01b03199091161790556115f28061004e6000396000f3fe60806040526004361061009c5760003560e01c806361a9643f1161006457806361a9643f1461019a57806368915327146101d257806388700d1c146101f25780639f37092a14610276578063b6b9ad0314610289578063e3751a6a146102a957600080fd5b806308b74fa4146100a157806316f3a95b146100ec57806322ab8aa01461010e578063231d70771461014457806359d3c58e14610185575b600080fd5b3480156100ad57600080fd5b506100d96100bc3660046112ea565b600260209081526000928352604080842090915290825290205481565b6040519081526020015b60405180910390f35b3480156100f857600080fd5b5061010c6101073660046112ea565b6102c9565b005b34801561011a57600080fd5b506100d9610129366004611316565b6001600160a01b031660009081526004602052604090205490565b34801561015057600080fd5b5060015461016c90600160a01b900467ffffffffffffffff1681565b60405167ffffffffffffffff90911681526020016100e3565b34801561019157600080fd5b5061010c6104da565b3480156101a657600080fd5b506001546101ba906001600160a01b031681565b6040516001600160a01b0390911681526020016100e3565b3480156101de57600080fd5b5061010c6101ed36600461133a565b610579565b3480156101fe57600080fd5b5061021261020d3660046112ea565b610a8d565b6040516100e3919081518152602080830151908201526040808301519082015260608083015115159082015260808083015115159082015260a0808301516001600160a01b039081169183019190915260c092830151169181019190915260e00190565b61010c6102843660046112ea565b610b4f565b34801561029557600080fd5b5061010c6102a43660046112ea565b610d5e565b3480156102b557600080fd5b5061016c6102c43660046112ea565b610ff9565b6040516331a9108f60e11b81526004810182905282908290339083906000906001600160a01b03831690636352211e90602401602060405180830381865afa158015610319573d6000803e3d6000fd5b505050506040513d601f19601f8201168201806040525081019061033d919061136f565b9050806001600160a01b0316836001600160a01b03161461037157604051631de0e1a960e11b815260040160405180910390fd5b6001600160a01b0380881660009081526003602081815260408084208b8552825292839020835160e081018552815481526001820154928101929092526002810154938201939093529082015460ff80821615156060840181905261010083049091161515608084015262010000909104841660a083015260049092015490921660c08301528891889161042f576040516312e4c0fb60e21b81526001600160a01b0384166004820152602481018390526044015b60405180910390fd5b6001600160a01b03808b1660008181526003602081815260408084208f85528252808420815160e0810183528154815260018201549381019390935260028101548383015292830154610100900460ff161515608083015260049092015490941660c08501526060840182905260a08401829052518c929133917fea5b5000e3add721de8766ab9898ce3267a3b7ec95e0112c138b44656ac9ed569190a45050505050505050505050565b336000908152600460205260409020548061050a57604051630ab5e20b60e41b8152336004820152602401610426565b604051600090339083908381818185875af1925050503d806000811461054c576040519150601f19603f3d011682016040523d82523d6000602084013e610551565b606091505b50509050806105755760405163bb76d30b60e01b8152336004820152602401610426565b5050565b6001600160a01b038084166000908152600360208181526040808420878552825292839020835160e081018552815481526001820154928101929092526002810154938201939093529082015460ff808216158015606085015261010083049091161515608084015262010000909104841660a083015260049092015490921660c083015284918491339190610634576040516312e07c9d60e11b81526001600160a01b038516600482015260248101849052604401610426565b6040516331a9108f60e11b81526004810187905287908790339083906000906001600160a01b03831690636352211e90602401602060405180830381865afa158015610684573d6000803e3d6000fd5b505050506040513d601f19601f820116820180604052508101906106a8919061136f565b9050806001600160a01b0316836001600160a01b0316146106dc57604051631de0e1a960e11b815260040160405180910390fd5b60008a116106fd5760405163b60d21af60e01b815260040160405180910390fd5b60405163020604bf60e21b8152600481018c90528c9030906001600160a01b0383169063081812fc90602401602060405180830381865afa158015610746573d6000803e3d6000fd5b505050506040513d601f19601f8201168201806040525081019061076a919061136f565b6001600160a01b03161461079157604051631c43b36560e11b815260040160405180910390fd5b6001600160a01b038d1660009081526003602090815260408083208f845290915281206002015490036108fe576040518060e001604052808c81526020016000815260200160018152602001600115158152602001600015158152602001336001600160a01b0316815260200160006001600160a01b0316815250600360008f6001600160a01b03166001600160a01b0316815260200190815260200160002060008e815260200190815260200160002060008201518160000155602082015181600101556040820151816002015560608201518160030160006101000a81548160ff02191690831515021790555060808201518160030160016101000a81548160ff02191690831515021790555060a08201518160030160026101000a8154816001600160a01b0302191690836001600160a01b0316021790555060c08201518160040160006101000a8154816001600160a01b0302191690836001600160a01b031602179055509050505b6000600360008f6001600160a01b03166001600160a01b0316815260200190815260200160002060008e81526020019081526020016000206040518060e00160405290816000820154815260200160018201548152602001600282015481526020016003820160009054906101000a900460ff161515151581526020016003820160019054906101000a900460ff161515151581526020016003820160029054906101000a90046001600160a01b03166001600160a01b03166001600160a01b031681526020016004820160009054906101000a90046001600160a01b03166001600160a01b03166001600160a01b03168152505090508b816000018181525050600181606001901515908115158152505060008160c001906001600160a01b031690816001600160a01b0316815250508c8e6001600160a01b0316336001600160a01b03167f82ff1688ac7e0c0e0da3da19d36679068a2807342df7b56990ff8b6f94df12628f604051610a7591815260200190565b60405180910390a45050505050505050505050505050565b6040805160e081018252600080825260208201819052918101829052606081018290526080810182905260a0810182905260c0810191909152506001600160a01b038083166000908152600360208181526040808420868552825292839020835160e081018552815481526001820154928101929092526002810154938201939093529082015460ff8082161515606084015261010082041615156080830152620100009004831660a082015260049091015490911660c08201525b92915050565b610b576112a8565b6001600160a01b038083166000908152600360208181526040808420868552825292839020835160e081018552815481526001820154928101929092526002810154938201939093529082015460ff80821615156060840181905261010083049091161515608084015262010000909104841660a083015260049092015490921660c083015283918391610c10576040516312e4c0fb60e21b81526001600160a01b038416600482015260248101839052604401610426565b6001600160a01b038086166000908152600360208181526040808420898552825292839020835160e08101855281548082526001830154938201939093526002820154948101949094529182015460ff8082161515606086015261010082041615156080850152620100009004841660a084015260049091015490921660c082015290341015610ccf57805160405163a900c18560e01b81526001600160a01b0388166004820152602481018790526044810191909152606401610426565b3360c08201818152600160808401526000918252600460205260409182902034905560a08301519051915187926001600160a01b038a16927f7e3e7a863cd0c4fc40e817ba4e47c04fb12d270ce36aecec775d190811c8443092610d4892906001600160a01b0392831681529116602082015260400190565b60405180910390a3505050506105756001600055565b610d666112a8565b6001600160a01b038083166000908152600360208181526040808420868552825292839020835160e081018552815481526001820154928101929092526002810154938201939093529082015460ff8082161515606084015261010082041615156080830181905262010000909104841660a083015260049092015490921660c083015283918391610e1d57604051639ffc458b60e01b81526001600160a01b038416600482015260248101839052604401610426565b6001600160a01b038086166000908152600360208181526040808420898552825292839020835160e081018552815481526001820154928101929092526002810154938201939093529082015460ff8082161515606084015261010082041615156080830152620100009004831660a082015260049091015490911660c082018190523314610ed157604051630abfe86960e31b81526001600160a01b038716600482015260248101869052604401610426565b60c0810180516001600160a01b0390811660009081526004602081905260408083205460a08701805186168552828520919091559451841683528083209290925592519051632142170760e11b815290821692810192909252336024830152604482018790528716906342842e0e90606401600060405180830381600087803b158015610f5d57600080fd5b505af1158015610f71573d6000803e3d6000fd5b50505050600181604001818151610f88919061138c565b9052506000606082018190526080820181905260a0820181905260c0820152805160405190815285906001600160a01b0388169033907f263223b1dd81e51054a4e6f791d45a4a1ddb4aadcd93a2dfd892615c3fdac1879060200160405180910390a4505050506105756001600055565b6040805161014081018252600154600160a01b900467ffffffffffffffff168152600060208083018290528284018290526060830182905230608084015260a0830182905260c0830182905260e083018290528351828152908101909352918291906101008201908361107c565b60608152602001906001900390816110675790505b50815260200185856040516020016110a99291906001600160a01b03929092168252602082015260400190565b60408051601f198184030181529181529152600154905163b82916cb60e01b81529192506000916001600160a01b039091169063b82916cb906110f0908590600401611471565b6020604051808303816000875af115801561110f573d6000803e3d6000fd5b505050506040513d601f19601f820116820180604052508101906111339190611592565b6001600160a01b0386166000908152600360209081526040808320888452909152812060019081018054939450909290919061117090849061138c565b90915550503360008181526005602081815260408084206001600160a01b038b811680875260038086528488208d89528652848820845460018082018755958a52988790208154999098029097019788558387015493880193909355600280870154908801558583018054938801805460ff958616151560ff19821681178355835461010090819004909716151590960261ff001990961661ffff1990911617949094178085559054620100009081900484160262010000600160b01b0319909116179092556004948501549490950180546001600160a01b03191694909516939093179093558251918252810187905267ffffffffffffffff8416918101919091527f18904258618d18135c6eb11e53358951c46d51f11ffb752c2ec0c21694ace2ba9060600160405180910390a2949350505050565b6002600054036112cb57604051633ee5aeb560e01b815260040160405180910390fd5b6002600055565b6001600160a01b03811681146112e757600080fd5b50565b600080604083850312156112fd57600080fd5b8235611308816112d2565b946020939093013593505050565b60006020828403121561132857600080fd5b8135611333816112d2565b9392505050565b60008060006060848603121561134f57600080fd5b833561135a816112d2565b95602085013595506040909401359392505050565b60006020828403121561138157600080fd5b8151611333816112d2565b80820180821115610b4957634e487b7160e01b600052601160045260246000fd5b600481106113cb57634e487b7160e01b600052602160045260246000fd5b9052565b6000815180845260005b818110156113f5576020818501810151868301820152016113d9565b506000602082860101526020601f19601f83011685010191505092915050565b600082825180855260208501945060208160051b8301016020850160005b8381101561146557601f1985840301885261144f8383516113cf565b6020988901989093509190910190600101611433565b50909695505050505050565b6080815261148c60808201835167ffffffffffffffff169052565b600060208301516114a960a084018267ffffffffffffffff169052565b50604083015167ffffffffffffffff90811660c0848101919091526060850151821660e085015260808501516001600160a01b031661010085015260a08501519091166101208401528301516115036101408401826113ad565b5060e0830151151561016083015261010083015161014061018084015261152e6101c0840182611415565b9050610120840151607f19848303016101a085015261154d82826113cf565b9150508281036020840152611566816000815260200190565b838103604085015260008152905060208101838103606085015260008152905060208101949350505050565b6000602082840312156115a457600080fd5b815167ffffffffffffffff8116811461133357600080fdfea26469706673582212200dc6509fb6be59c8f5fbfde6e4ce9f668ab14c6e3244acacd4b854814859186964736f6c634300081c0033","linkReferences":{}},"methodIdentifiers":{"buyItem(address,uint256)":"9f37092a","cancelSale(address,uint256)":"16f3a95b","confirmAuthenticity(address,uint256)":"e3751a6a","confirmDelivery(address,uint256)":"b6b9ad03","getListing(address,uint256)":"88700d1c","getPendingProceeds(address)":"22ab8aa0","i_schemaId()":"231d7077","i_spInstance()":"61a9643f","sellItem(address,uint256,uint256)":"68915327","tokenToNumOfAttestations(address,uint256)":"08b74fa4","withdrawPendingProceeds()":"59d3c58e"},"id":10}