{"abi":[{"type":"constructor","inputs":[],"stateMutability":"nonpayable"},{"type":"function","name":"buyItem","inputs":[{"name":"nftAddress","type":"address","internalType":"address"},{"name":"tokenId","type":"uint256","internalType":"uint256"}],"outputs":[],"stateMutability":"payable"},{"type":"function","name":"cancelSale","inputs":[{"name":"nftAddress","type":"address","internalType":"address"},{"name":"tokenId","type":"uint256","internalType":"uint256"}],"outputs":[],"stateMutability":"nonpayable"},{"type":"function","name":"confirmAuthenticity","inputs":[{"name":"nftAddress","type":"address","internalType":"address"},{"name":"tokenId","type":"uint256","internalType":"uint256"}],"outputs":[{"name":"","type":"uint64","internalType":"uint64"}],"stateMutability":"nonpayable"},{"type":"function","name":"confirmDelivery","inputs":[{"name":"nftAddress","type":"address","internalType":"address"},{"name":"tokenId","type":"uint256","internalType":"uint256"}],"outputs":[],"stateMutability":"nonpayable"},{"type":"function","name":"getListing","inputs":[{"name":"nftAddress","type":"address","internalType":"address"},{"name":"tokenId","type":"uint256","internalType":"uint256"}],"outputs":[{"name":"","type":"tuple","internalType":"struct AuthLegacyGarden.Listing","components":[{"name":"price","type":"uint256","internalType":"uint256"},{"name":"numOfAttestations","type":"uint256","internalType":"uint256"},{"name":"numOfOwners","type":"uint256","internalType":"uint256"},{"name":"openForSale","type":"bool","internalType":"bool"},{"name":"onHold","type":"bool","internalType":"bool"},{"name":"seller","type":"address","internalType":"address"},{"name":"buyer","type":"address","internalType":"address"}]}],"stateMutability":"view"},{"type":"function","name":"i_schemaId","inputs":[],"outputs":[{"name":"","type":"uint64","internalType":"uint64"}],"stateMutability":"view"},{"type":"function","name":"i_spInstance","inputs":[],"outputs":[{"name":"","type":"address","internalType":"contract ISP"}],"stateMutability":"view"},{"type":"function","name":"sellItem","inputs":[{"name":"nftAddress","type":"address","internalType":"address"},{"name":"tokenId","type":"uint256","internalType":"uint256"},{"name":"price","type":"uint256","internalType":"uint256"}],"outputs":[],"stateMutability":"nonpayable"},{"type":"function","name":"tokenToNumOfAttestations","inputs":[{"name":"","type":"address","internalType":"address"},{"name":"","type":"uint256","internalType":"uint256"}],"outputs":[{"name":"","type":"uint256","internalType":"uint256"}],"stateMutability":"view"},{"type":"function","name":"withdrawBuyerProceeds","inputs":[{"name":"nftAddress","type":"address","internalType":"address"},{"name":"tokenId","type":"uint256","internalType":"uint256"}],"outputs":[],"stateMutability":"nonpayable"},{"type":"function","name":"withdrawPendingSellerProceeds","inputs":[{"name":"nftAddress","type":"address","internalType":"address"},{"name":"tokenId","type":"uint256","internalType":"uint256"}],"outputs":[],"stateMutability":"nonpayable"},{"type":"event","name":"AuthenticityAttested","inputs":[{"name":"attester","type":"address","indexed":true,"internalType":"address"},{"name":"nftAddress","type":"address","indexed":false,"internalType":"address"},{"name":"tokenId","type":"uint256","indexed":false,"internalType":"uint256"},{"name":"attestationId","type":"uint64","indexed":false,"internalType":"uint64"}],"anonymous":false},{"type":"event","name":"ItemBought","inputs":[{"name":"buyer","type":"address","indexed":true,"internalType":"address"},{"name":"nftAddress","type":"address","indexed":true,"internalType":"address"},{"name":"tokenId","type":"uint256","indexed":true,"internalType":"uint256"},{"name":"price","type":"uint256","indexed":false,"internalType":"uint256"}],"anonymous":false},{"type":"event","name":"ItemOnHold","inputs":[{"name":"nftAddress","type":"address","indexed":true,"internalType":"address"},{"name":"tokenId","type":"uint256","indexed":true,"internalType":"uint256"},{"name":"seller","type":"address","indexed":false,"internalType":"address"},{"name":"buyer","type":"address","indexed":false,"internalType":"address"}],"anonymous":false},{"type":"event","name":"ItemPutOnSale","inputs":[{"name":"seller","type":"address","indexed":true,"internalType":"address"},{"name":"nftAddress","type":"address","indexed":true,"internalType":"address"},{"name":"tokenId","type":"uint256","indexed":true,"internalType":"uint256"},{"name":"price","type":"uint256","indexed":false,"internalType":"uint256"}],"anonymous":false},{"type":"event","name":"SaleCanceled","inputs":[{"name":"seller","type":"address","indexed":true,"internalType":"address"},{"name":"nftAddress","type":"address","indexed":true,"internalType":"address"},{"name":"tokenId","type":"uint256","indexed":true,"internalType":"uint256"}],"anonymous":false},{"type":"error","name":"AuthLegacyGarden__AlreadyOpenForSale","inputs":[{"name":"nftAddress","type":"address","internalType":"address"},{"name":"tokenId","type":"uint256","internalType":"uint256"}]},{"type":"error","name":"AuthLegacyGarden__ItemNotOnHold","inputs":[{"name":"nftAddress","type":"address","internalType":"address"},{"name":"tokenId","type":"uint256","internalType":"uint256"}]},{"type":"error","name":"AuthLegacyGarden__ItemOnHold","inputs":[{"name":"nftAddress","type":"address","internalType":"address"},{"name":"tokenId","type":"uint256","internalType":"uint256"}]},{"type":"error","name":"AuthLegacyGarden__NoPendingProceeds","inputs":[{"name":"seller","type":"address","internalType":"address"}]},{"type":"error","name":"AuthLegacyGarden__NotApprovedForMarketplace","inputs":[]},{"type":"error","name":"AuthLegacyGarden__NotBuyer","inputs":[{"name":"nftAddress","type":"address","internalType":"address"},{"name":"tokenId","type":"uint256","internalType":"uint256"}]},{"type":"error","name":"AuthLegacyGarden__NotOpenForSale","inputs":[{"name":"nftAddress","type":"address","internalType":"address"},{"name":"tokenId","type":"uint256","internalType":"uint256"}]},{"type":"error","name":"AuthLegacyGarden__NotOwner","inputs":[]},{"type":"error","name":"AuthLegacyGarden__PriceMustBeAboveZero","inputs":[]},{"type":"error","name":"AuthLegacyGarden__PriceNotMet","inputs":[{"name":"nftAddress","type":"address","internalType":"address"},{"name":"tokenId","type":"uint256","internalType":"uint256"},{"name":"price","type":"uint256","internalType":"uint256"}]},{"type":"error","name":"AuthLegacyGarden__TransferFailed","inputs":[{"name":"seller","type":"address","internalType":"address"}]},{"type":"error","name":"ReentrancyGuardReentrantCall","inputs":[]}],"bytecode":{"object":"0x608060405234801561001057600080fd5b506001600081905580547504a24e4af2a21ebf62850fd99eb6253e1efbb56098cd6001600160e01b03199091161790556117c48061004f6000396000f3fe60806040526004361061009c5760003560e01c8063703069ab11610064578063703069ab146101a757806388700d1c146101c75780639f37092a1461024b578063b6b9ad031461025e578063e3751a6a1461027e578063f85f35b21461029e57600080fd5b806308b74fa4146100a157806316f3a95b146100ec578063231d70771461010e57806361a9643f1461014f5780636891532714610187575b600080fd5b3480156100ad57600080fd5b506100d96100bc3660046114ca565b600260209081526000928352604080842090915290825290205481565b6040519081526020015b60405180910390f35b3480156100f857600080fd5b5061010c6101073660046114ca565b6102be565b005b34801561011a57600080fd5b5060015461013690600160a01b900467ffffffffffffffff1681565b60405167ffffffffffffffff90911681526020016100e3565b34801561015b57600080fd5b5060015461016f906001600160a01b031681565b6040516001600160a01b0390911681526020016100e3565b34801561019357600080fd5b5061010c6101a23660046114f6565b6104cf565b3480156101b357600080fd5b5061010c6101c23660046114ca565b6109fd565b3480156101d357600080fd5b506101e76101e23660046114ca565b610b6b565b6040516100e3919081518152602080830151908201526040808301519082015260608083015115159082015260808083015115159082015260a0808301516001600160a01b039081169183019190915260c092830151169181019190915260e00190565b61010c6102593660046114ca565b610c2d565b34801561026a57600080fd5b5061010c6102793660046114ca565b610e49565b34801561028a57600080fd5b506101366102993660046114ca565b6110e4565b3480156102aa57600080fd5b5061010c6102b93660046114ca565b61138e565b6040516331a9108f60e11b81526004810182905282908290339083906000906001600160a01b03831690636352211e90602401602060405180830381865afa15801561030e573d6000803e3d6000fd5b505050506040513d601f19601f82011682018060405250810190610332919061152b565b9050806001600160a01b0316836001600160a01b031614610366576040516312a66fb360e11b815260040160405180910390fd5b6001600160a01b0380881660009081526003602081815260408084208b8552825292839020835160e081018552815481526001820154928101929092526002810154938201939093529082015460ff80821615156060840181905261010083049091161515608084015262010000909104841660a083015260049092015490921660c08301528891889161042457604051632fef4f8f60e11b81526001600160a01b0384166004820152602481018390526044015b60405180910390fd5b6001600160a01b03808b1660008181526003602081815260408084208f85528252808420815160e0810183528154815260018201549381019390935260028101548383015292830154610100900460ff161515608083015260049092015490941660c08501526060840182905260a08401829052518c929133917fea5b5000e3add721de8766ab9898ce3267a3b7ec95e0112c138b44656ac9ed569190a45050505050505050505050565b6001600160a01b038084166000908152600360208181526040808420878552825292839020835160e081018552815481526001820154928101929092526002810154938201939093529082015460ff808216158015606085015261010083049091161515608084015262010000909104841660a083015260049092015490921660c083015284918491610587576040516399d3d78560e01b81526001600160a01b03841660048201526024810183905260440161041b565b6040516331a9108f60e11b81526004810186905286908690339083906000906001600160a01b03831690636352211e90602401602060405180830381865afa1580156105d7573d6000803e3d6000fd5b505050506040513d601f19601f820116820180604052508101906105fb919061152b565b9050806001600160a01b0316836001600160a01b03161461062f576040516312a66fb360e11b815260040160405180910390fd5b600089116106505760405163c315b92f60e01b815260040160405180910390fd5b60405163020604bf60e21b8152600481018b90528b9030906001600160a01b0383169063081812fc90602401602060405180830381865afa158015610699573d6000803e3d6000fd5b505050506040513d601f19601f820116820180604052508101906106bd919061152b565b6001600160a01b0316146106e457604051634eb060ab60e11b815260040160405180910390fd5b6001600160a01b038c1660009081526003602090815260408083208e84529091528120600201549003610851576040518060e001604052808b81526020016000815260200160018152602001600115158152602001600015158152602001336001600160a01b0316815260200160006001600160a01b0316815250600360008e6001600160a01b03166001600160a01b0316815260200190815260200160002060008d815260200190815260200160002060008201518160000155602082015181600101556040820151816002015560608201518160030160006101000a81548160ff02191690831515021790555060808201518160030160016101000a81548160ff02191690831515021790555060a08201518160030160026101000a8154816001600160a01b0302191690836001600160a01b0316021790555060c08201518160040160006101000a8154816001600160a01b0302191690836001600160a01b031602179055509050505b6000600360008e6001600160a01b03166001600160a01b0316815260200190815260200160002060008d81526020019081526020016000206040518060e00160405290816000820154815260200160018201548152602001600282015481526020016003820160009054906101000a900460ff161515151581526020016003820160019054906101000a900460ff161515151581526020016003820160029054906101000a90046001600160a01b03166001600160a01b03166001600160a01b031681526020016004820160009054906101000a90046001600160a01b03166001600160a01b03166001600160a01b03168152505090508a8160000181815250506001816060019015159081151581525050338160a001906001600160a01b031690816001600160a01b03168152505060008160c001906001600160a01b031690816001600160a01b0316815250508b8d6001600160a01b0316336001600160a01b03167f82ff1688ac7e0c0e0da3da19d36679068a2807342df7b56990ff8b6f94df12628e6040516109e691815260200190565b60405180910390a450505050505050505050505050565b6001600160a01b038083166000908152600360208181526040808420868552825292839020835160e081018552815481526001820154928101929092526002810154938201939093529082015460ff80821615156060840152610100820416158015608084015262010000909104841660a083015260049092015490921660c083015283918391610ab3576040516355bdb19960e11b81526001600160a01b03841660048201526024810183905260440161041b565b6001600160a01b038516600090815260046020908152604080832087845290915290205480610af757604051630a4b9e8760e41b815233600482015260240161041b565b604051600090339083908381818185875af1925050503d8060008114610b39576040519150601f19603f3d011682016040523d82523d6000602084013e610b3e565b606091505b5050905080610b62576040516353f79be360e01b815233600482015260240161041b565b50505050505050565b6040805160e081018252600080825260208201819052918101829052606081018290526080810182905260a0810182905260c0810191909152506001600160a01b038083166000908152600360208181526040808420868552825292839020835160e081018552815481526001820154928101929092526002810154938201939093529082015460ff8082161515606084015261010082041615156080830152620100009004831660a082015260049091015490911660c08201525b92915050565b610c35611488565b6001600160a01b038083166000908152600360208181526040808420868552825292839020835160e081018552815481526001820154928101929092526002810154938201939093529082015460ff80821615156060840181905261010083049091161515608084015262010000909104841660a083015260049092015490921660c083015283918391610cee57604051632fef4f8f60e11b81526001600160a01b03841660048201526024810183905260440161041b565b6001600160a01b038086166000908152600360208181526040808420898552825292839020835160e08101855281548082526001830154938201939093526002820154948101949094529182015460ff8082161515606086015261010082041615156080850152620100009004841660a084015260049091015490921660c082015290341015610dad5780516040516357ad229160e11b81526001600160a01b038816600482015260248101879052604481019190915260640161041b565b3360c08201908152600160808301526001600160a01b03871660008181526004602090815260408083208a84529091529081902034905560a08401519251905188937f7e3e7a863cd0c4fc40e817ba4e47c04fb12d270ce36aecec775d190811c8443092610e2f926001600160a01b0392831681529116602082015260400190565b60405180910390a350505050610e456001600055565b5050565b610e51611488565b6001600160a01b038083166000908152600360208181526040808420868552825292839020835160e081018552815481526001820154928101929092526002810154938201939093529082015460ff8082161515606084015261010082041615156080830181905262010000909104841660a083015260049092015490921660c083015283918391610f0857604051631931e46960e11b81526001600160a01b03841660048201526024810183905260440161041b565b6001600160a01b038086166000908152600360208181526040808420898552825292839020835160e081018552815481526001820154928101929092526002810154938201939093529082015460ff8082161515606084015261010082041615156080830152620100009004831660a082015260049091015490911660c082018190523314610fbc57604051631449904560e21b81526001600160a01b03871660048201526024810186905260440161041b565b6001600160a01b0386811660008181526004602081815260408084208b85528083528185208054878752600585528387208e8852855283872055925292905560a08501519151632142170760e11b8152919093169281019290925233602483015260448201879052906342842e0e90606401600060405180830381600087803b15801561104857600080fd5b505af115801561105c573d6000803e3d6000fd5b50505050600181604001818151611073919061154f565b9052506000606082018190526080820181905260a0820181905260c0820152805160405190815285906001600160a01b0388169033907f263223b1dd81e51054a4e6f791d45a4a1ddb4aadcd93a2dfd892615c3fdac1879060200160405180910390a450505050610e456001600055565b6040805161014081018252600154600160a01b900467ffffffffffffffff168152600060208083018290528284018290526060830182905230608084015260a0830182905260c0830182905260e0830182905283518281529081019093529182919061010082019083611167565b60608152602001906001900390816111525790505b50815260200185856040516020016111949291906001600160a01b03929092168252602082015260400190565b60408051601f198184030181529181529152600154905163b82916cb60e01b81529192506000916001600160a01b039091169063b82916cb906111db90859060040161162d565b6020604051808303816000875af11580156111fa573d6000803e3d6000fd5b505050506040513d601f19601f8201168201806040525081019061121e9190611764565b6001600160a01b0386166000908152600360209081526040808320888452909152812060019081018054939450909290919061125b90849061154f565b90915550503360008181526006602090815260408083206001600160a01b038a811680865260038086528487208c885286528487208454600180820187559589529787902081546005909902019788558481015494880194909455600280850154908801558381018054918801805460ff938416151560ff19821681178355835461010090819004909516151590940261ff001990941661ffff1990911617929092178083559054620100009081900485160262010000600160b01b03199091161790556004928301549290950180546001600160a01b03191692909116919091179055805192835290820187905267ffffffffffffffff8416908201527f18904258618d18135c6eb11e53358951c46d51f11ffb752c2ec0c21694ace2ba9060600160405180910390a2949350505050565b6001600160a01b038083166000908152600360208181526040808420868552825292839020835160e081018552815481526001820154928101929092526002810154938201939093529082015460ff80821615156060840152610100820416158015608084015262010000909104841660a083015260049092015490921660c083015283918391611444576040516355bdb19960e11b81526001600160a01b03841660048201526024810183905260440161041b565b6001600160a01b038516600090815260056020908152604080832087845290915290205480610af757604051630a4b9e8760e41b815233600482015260240161041b565b6002600054036114ab57604051633ee5aeb560e01b815260040160405180910390fd5b6002600055565b6001600160a01b03811681146114c757600080fd5b50565b600080604083850312156114dd57600080fd5b82356114e8816114b2565b946020939093013593505050565b60008060006060848603121561150b57600080fd5b8335611516816114b2565b95602085013595506040909401359392505050565b60006020828403121561153d57600080fd5b8151611548816114b2565b9392505050565b80820180821115610c2757634e487b7160e01b600052601160045260246000fd5b6004811061158e57634e487b7160e01b600052602160045260246000fd5b9052565b6000815180845260005b818110156115b85760208185018101518683018201520161159c565b506000602082860101526020601f19601f83011685010191505092915050565b600081518084526020808501808196508360051b8101915082860160005b8581101561162057828403895261160e848351611592565b988501989350908401906001016115f6565b5091979650505050505050565b6080815261164860808201835167ffffffffffffffff169052565b6000602083015161166560a084018267ffffffffffffffff169052565b50604083015167ffffffffffffffff90811660c084015260608401511660e083015260808301516001600160a01b0381166101008085019190915260a085015191506101206116bf8186018467ffffffffffffffff169052565b60c086015192506101406116d581870185611570565b60e087015115156101608701528287015161018087019190915292506116ff6101c08601846115d8565b90860151858203607f19016101a0870152909250905061171f8282611592565b9150508281036020840152611738816000815260200190565b838103604085015260008152905060208101838103606085015260008152905060208101949350505050565b60006020828403121561177657600080fd5b815167ffffffffffffffff8116811461154857600080fdfea26469706673582212201a07d754fd61aa456fd4953714339824bf520ee590bba0093668883ed9f9e58164736f6c63430008140033","linkReferences":{}},"methodIdentifiers":{"buyItem(address,uint256)":"9f37092a","cancelSale(address,uint256)":"16f3a95b","confirmAuthenticity(address,uint256)":"e3751a6a","confirmDelivery(address,uint256)":"b6b9ad03","getListing(address,uint256)":"88700d1c","i_schemaId()":"231d7077","i_spInstance()":"61a9643f","sellItem(address,uint256,uint256)":"68915327","tokenToNumOfAttestations(address,uint256)":"08b74fa4","withdrawBuyerProceeds(address,uint256)":"703069ab","withdrawPendingSellerProceeds(address,uint256)":"f85f35b2"},"id":48}